{
  "contractName": "DappToken",
  "abi": [
    {
      "constant": true,
      "inputs": [],
      "name": "totalSupply",
      "outputs": [
        {
          "name": "",
          "type": "uint256"
        }
      ],
      "payable": false,
      "stateMutability": "view",
      "type": "function"
    },
    {
      "inputs": [
        {
          "name": "_totalSupply",
          "type": "uint256"
        }
      ],
      "payable": false,
      "stateMutability": "nonpayable",
      "type": "constructor"
    }
  ],
  "bytecode": "0x608060405234801561001057600080fd5b506040516020806100e7833981018060405281019080805190602001909291905050508060008190555050609e806100496000396000f300608060405260043610603f576000357c0100000000000000000000000000000000000000000000000000000000900463ffffffff16806318160ddd146044575b600080fd5b348015604f57600080fd5b506056606c565b6040518082815260200191505060405180910390f35b600054815600a165627a7a723058200bb6226494b2d65f2e361f0339288bf9a12679a1aaad707a8c61b186bbf163f00029",
  "source": "pragma solidity ^0.4.2;\n\ncontract DappToken {\n    // Constructor\n    uint256 public totalSupply;\n\n    constructor(uint256 _totalSupply) public {\n        totalSupply = _totalSupply;\n    }\n    // Set the total number of tokens\n    // Read the total number of tokens\n}",
  "sourcePath": "/Users/devinjackson/Documents/Projects/my-token/contracts/DappToken.sol",
  "compiler": {
    "name": "solc",
    "version": "0.4.24+commit.e67f0147.Emscripten.clang"
  },
  "schemaVersion": "2.0.1",
  "updatedAt": "2018-07-24T20:55:44.814Z"
}